{"contracts/SupplyChain.sol":{"SupplyChain":{"abi":[{"inputs":[{"internalType":"uint256","name":"","type":"uint256"}],"name":"containerDetail","outputs":[{"internalType":"uint256","name":"container","type":"uint256"},{"internalType":"string","name":"dateOfDept","type":"string"},{"internalType":"string","name":"placeOfDept","type":"string"},{"internalType":"string","name":"expectArrivalDate","type":"string"},{"internalType":"string","name":"expArrivalLocation","type":"string"},{"internalType":"string","name":"dateUnloaded","type":"string"},{"internalType":"string","name":"locationUnloaded","type":"string"},{"internalType":"uint256","name":"vessel","type":"uint256"},{"internalType":"uint256","name":"voyage","type":"uint256"}],"stateMutability":"view","type":"function"},{"inputs":[{"internalType":"uint256","name":"_containerID","type":"uint256"},{"internalType":"string","name":"_dateUnloaded","type":"string"},{"internalType":"string","name":"_locationUnloaded","type":"string"}],"name":"containerUnload","outputs":[],"stateMutability":"nonpayable","type":"function"},{"inputs":[{"internalType":"uint256","name":"_container","type":"uint256"},{"internalType":"string","name":"_dateOfDept","type":"string"},{"internalType":"string","name":"_placeOfDept","type":"string"},{"internalType":"string","name":"_expDateOfArrival","type":"string"},{"internalType":"string","name":"_expLocationOfArrival","type":"string"},{"internalType":"uint256","name":"_vessel","type":"uint256"},{"internalType":"uint256","name":"_voyage","type":"uint256"},{"internalType":"uint256[]","name":"_upc","type":"uint256[]"},{"internalType":"uint256[]","name":"_shippedCartoon","type":"uint256[]"}],"name":"generateOrder","outputs":[],"stateMutability":"nonpayable","type":"function"},{"inputs":[{"internalType":"uint256","name":"_containerID","type":"uint256"}],"name":"getOrderbyContainerID","outputs":[{"internalType":"string","name":"","type":"string"},{"internalType":"string","name":"","type":"string"},{"internalType":"string","name":"","type":"string"},{"internalType":"string","name":"","type":"string"},{"internalType":"uint256","name":"","type":"uint256"},{"internalType":"uint256","name":"","type":"uint256"},{"internalType":"uint256[]","name":"","type":"uint256[]"},{"internalType":"uint256[]","name":"","type":"uint256[]"}],"stateMutability":"view","type":"function"}],"evm":{"bytecode":{"linkReferences":{},"object":"608060405234801561001057600080fd5b50611355806100206000396000f3fe608060405234801561001057600080fd5b506004361061004c5760003560e01c80634f8094a214610051578063771a600c1461006d578063778a6e1b146100a5578063b44dabfa146100dc575b600080fd5b61006b60048036038101906100669190610a9b565b6100f8565b005b61008760048036038101906100829190610b26565b610138565b60405161009c99989796959493929190610bea565b60405180910390f35b6100bf60048036038101906100ba9190610b26565b6104b6565b6040516100d3989796959493929190610d5f565b60405180910390f35b6100f660048036038101906100f19190610ecf565b6107ea565b005b600080600085815260200190815260200160002090508281600501908161011f919061124d565b5081816006019081610131919061124d565b5050505050565b600060205280600052604060002060009150905080600001549080600101805461016190611070565b80601f016020809104026020016040519081016040528092919081815260200182805461018d90611070565b80156101da5780601f106101af576101008083540402835291602001916101da565b820191906000526020600020905b8154815290600101906020018083116101bd57829003601f168201915b5050505050908060020180546101ef90611070565b80601f016020809104026020016040519081016040528092919081815260200182805461021b90611070565b80156102685780601f1061023d57610100808354040283529160200191610268565b820191906000526020600020905b81548152906001019060200180831161024b57829003601f168201915b50505050509080600301805461027d90611070565b80601f01602080910402602001604051908101604052809291908181526020018280546102a990611070565b80156102f65780601f106102cb576101008083540402835291602001916102f6565b820191906000526020600020905b8154815290600101906020018083116102d957829003601f168201915b50505050509080600401805461030b90611070565b80601f016020809104026020016040519081016040528092919081815260200182805461033790611070565b80156103845780601f1061035957610100808354040283529160200191610384565b820191906000526020600020905b81548152906001019060200180831161036757829003601f168201915b50505050509080600501805461039990611070565b80601f01602080910402602001604051908101604052809291908181526020018280546103c590611070565b80156104125780601f106103e757610100808354040283529160200191610412565b820191906000526020600020905b8154815290600101906020018083116103f557829003601f168201915b50505050509080600601805461042790611070565b80601f016020809104026020016040519081016040528092919081815260200182805461045390611070565b80156104a05780601f10610475576101008083540402835291602001916104a0565b820191906000526020600020905b81548152906001019060200180831161048357829003601f168201915b5050505050908060070154908060080154905089565b60608060608060008060608060008060008b8152602001908152602001600020905080600101816002018260030183600401846007015485600801548660090187600a0187805461050690611070565b80601f016020809104026020016040519081016040528092919081815260200182805461053290611070565b801561057f5780601f106105545761010080835404028352916020019161057f565b820191906000526020600020905b81548152906001019060200180831161056257829003601f168201915b5050505050975086805461059290611070565b80601f01602080910402602001604051908101604052809291908181526020018280546105be90611070565b801561060b5780601f106105e05761010080835404028352916020019161060b565b820191906000526020600020905b8154815290600101906020018083116105ee57829003601f168201915b5050505050965085805461061e90611070565b80601f016020809104026020016040519081016040528092919081815260200182805461064a90611070565b80156106975780601f1061066c57610100808354040283529160200191610697565b820191906000526020600020905b81548152906001019060200180831161067a57829003601f168201915b505050505095508480546106aa90611070565b80601f01602080910402602001604051908101604052809291908181526020018280546106d690611070565b80156107235780601f106106f857610100808354040283529160200191610723565b820191906000526020600020905b81548152906001019060200180831161070657829003601f168201915b505050505094508180548060200260200160405190810160405280929190818152602001828054801561077557602002820191906000526020600020905b815481526020019060010190808311610761575b50505050509150808054806020026020016040519081016040528092919081815260200182805480156107c757602002820191906000526020600020905b8154815260200190600101908083116107b3575b505050505090509850985098509850985098509850985050919395975091939597565b60008060008b815260200190815260200160002090508981600001819055508881600101908161081a919061124d565b508781600401908161082c919061124d565b508681600301908161083e919061124d565b5085816002019081610850919061124d565b508481600701819055508381600801819055508281600901908051906020019061087b9291906108a1565b508181600a0190805190602001906108949291906108a1565b5050505050505050505050565b8280548282559060005260206000209081019282156108dd579160200282015b828111156108dc5782518255916020019190600101906108c1565b5b5090506108ea91906108ee565b5090565b5b808211156109075760008160009055506001016108ef565b5090565b6000604051905090565b600080fd5b600080fd5b6000819050919050565b6109328161091f565b811461093d57600080fd5b50565b60008135905061094f81610929565b92915050565b600080fd5b600080fd5b6000601f19601f8301169050919050565b7f4e487b7100000000000000000000000000000000000000000000000000000000600052604160045260246000fd5b6109a88261095f565b810181811067ffffffffffffffff821117156109c7576109c6610970565b5b80604052505050565b60006109da61090b565b90506109e6828261099f565b919050565b600067ffffffffffffffff821115610a0657610a05610970565b5b610a0f8261095f565b9050602081019050919050565b82818337600083830152505050565b6000610a3e610a39846109eb565b6109d0565b905082815260208101848484011115610a5a57610a5961095a565b5b610a65848285610a1c565b509392505050565b600082601f830112610a8257610a81610955565b5b8135610a92848260208601610a2b565b91505092915050565b600080600060608486031215610ab457610ab3610915565b5b6000610ac286828701610940565b935050602084013567ffffffffffffffff811115610ae357610ae261091a565b5b610aef86828701610a6d565b925050604084013567ffffffffffffffff811115610b1057610b0f61091a565b5b610b1c86828701610a6d565b9150509250925092565b600060208284031215610b3c57610b3b610915565b5b6000610b4a84828501610940565b91505092915050565b610b5c8161091f565b82525050565b600081519050919050565b600082825260208201905092915050565b60005b83811015610b9c578082015181840152602081019050610b81565b83811115610bab576000848401525b50505050565b6000610bbc82610b62565b610bc68185610b6d565b9350610bd6818560208601610b7e565b610bdf8161095f565b840191505092915050565b600061012082019050610c00600083018c610b53565b8181036020830152610c12818b610bb1565b90508181036040830152610c26818a610bb1565b90508181036060830152610c3a8189610bb1565b90508181036080830152610c4e8188610bb1565b905081810360a0830152610c628187610bb1565b905081810360c0830152610c768186610bb1565b9050610c8560e0830185610b53565b610c93610100830184610b53565b9a9950505050505050505050565b600081519050919050565b600082825260208201905092915050565b6000819050602082019050919050565b610cd68161091f565b82525050565b6000610ce88383610ccd565b60208301905092915050565b6000602082019050919050565b6000610d0c82610ca1565b610d168185610cac565b9350610d2183610cbd565b8060005b83811015610d52578151610d398882610cdc565b9750610d4483610cf4565b925050600181019050610d25565b5085935050505092915050565b6000610100820190508181036000830152610d7a818b610bb1565b90508181036020830152610d8e818a610bb1565b90508181036040830152610da28189610bb1565b90508181036060830152610db68188610bb1565b9050610dc56080830187610b53565b610dd260a0830186610b53565b81810360c0830152610de48185610d01565b905081810360e0830152610df88184610d01565b90509998505050505050505050565b600067ffffffffffffffff821115610e2257610e21610970565b5b602082029050602081019050919050565b600080fd5b6000610e4b610e4684610e07565b6109d0565b90508083825260208201905060208402830185811115610e6e57610e6d610e33565b5b835b81811015610e975780610e838882610940565b845260208401935050602081019050610e70565b5050509392505050565b600082601f830112610eb657610eb5610955565b5b8135610ec6848260208601610e38565b91505092915050565b60008060008060008060008060006101208a8c031215610ef257610ef1610915565b5b6000610f008c828d01610940565b99505060208a013567ffffffffffffffff811115610f2157610f2061091a565b5b610f2d8c828d01610a6d565b98505060408a013567ffffffffffffffff811115610f4e57610f4d61091a565b5b610f5a8c828d01610a6d565b97505060608a013567ffffffffffffffff811115610f7b57610f7a61091a565b5b610f878c828d01610a6d565b96505060808a013567ffffffffffffffff811115610fa857610fa761091a565b5b610fb48c828d01610a6d565b95505060a0610fc58c828d01610940565b94505060c0610fd68c828d01610940565b93505060e08a013567ffffffffffffffff811115610ff757610ff661091a565b5b6110038c828d01610ea1565b9250506101008a013567ffffffffffffffff8111156110255761102461091a565b5b6110318c828d01610ea1565b9150509295985092959850929598565b7f4e487b7100000000000000000000000000000000000000000000000000000000600052602260045260246000fd5b6000600282049050600182168061108857607f821691505b60208210810361109b5761109a611041565b5b50919050565b60008190508160005260206000209050919050565b60006020601f8301049050919050565b600082821b905092915050565b6000600883026111037fffffffffffffffffffffffffffffffffffffffffffffffffffffffffffffffff826110c6565b61110d86836110c6565b95508019841693508086168417925050509392505050565b6000819050919050565b600061114a6111456111408461091f565b611125565b61091f565b9050919050565b6000819050919050565b6111648361112f565b61117861117082611151565b8484546110d3565b825550505050565b600090565b61118d611180565b61119881848461115b565b505050565b5b818110156111bc576111b1600082611185565b60018101905061119e565b5050565b601f821115611201576111d2816110a1565b6111db846110b6565b810160208510156111ea578190505b6111fe6111f6856110b6565b83018261119d565b50505b505050565b600082821c905092915050565b600061122460001984600802611206565b1980831691505092915050565b600061123d8383611213565b9150826002028217905092915050565b61125682610b62565b67ffffffffffffffff81111561126f5761126e610970565b5b6112798254611070565b6112848282856111c0565b600060209050601f8311600181146112b757600084156112a5578287015190505b6112af8582611231565b865550611317565b601f1984166112c5866110a1565b60005b828110156112ed578489015182556001820191506020850194506020810190506112c8565b8683101561130a5784890151611306601f891682611213565b8355505b6001600288020188555050505b50505050505056fea2646970667358221220074fe4a2f7e6164334231787250a1f2668efeaed51bb94d50d8972eb83ecc2fb64736f6c634300080f0033","opcodes":"PUSH1 0x80 PUSH1 0x40 MSTORE CALLVALUE DUP1 ISZERO PUSH2 0x10 JUMPI PUSH1 0x0 DUP1 REVERT JUMPDEST POP PUSH2 0x1355 DUP1 PUSH2 0x20 PUSH1 0x0 CODECOPY PUSH1 0x0 RETURN INVALID PUSH1 0x80 PUSH1 0x40 MSTORE CALLVALUE DUP1 ISZERO PUSH2 0x10 JUMPI PUSH1 0x0 DUP1 REVERT JUMPDEST POP PUSH1 0x4 CALLDATASIZE LT PUSH2 0x4C JUMPI PUSH1 0x0 CALLDATALOAD PUSH1 0xE0 SHR DUP1 PUSH4 0x4F8094A2 EQ PUSH2 0x51 JUMPI DUP1 PUSH4 0x771A600C EQ PUSH2 0x6D JUMPI DUP1 PUSH4 0x778A6E1B EQ PUSH2 0xA5 JUMPI DUP1 PUSH4 0xB44DABFA EQ PUSH2 0xDC JUMPI JUMPDEST PUSH1 0x0 DUP1 REVERT JUMPDEST PUSH2 0x6B PUSH1 0x4 DUP1 CALLDATASIZE SUB DUP2 ADD SWAP1 PUSH2 0x66 SWAP2 SWAP1 PUSH2 0xA9B JUMP JUMPDEST PUSH2 0xF8 JUMP JUMPDEST STOP JUMPDEST PUSH2 0x87 PUSH1 0x4 DUP1 CALLDATASIZE SUB DUP2 ADD SWAP1 PUSH2 0x82 SWAP2 SWAP1 PUSH2 0xB26 JUMP JUMPDEST PUSH2 0x138 JUMP JUMPDEST PUSH1 0x40 MLOAD PUSH2 0x9C SWAP10 SWAP9 SWAP8 SWAP7 SWAP6 SWAP5 SWAP4 SWAP3 SWAP2 SWAP1 PUSH2 0xBEA JUMP JUMPDEST PUSH1 0x40 MLOAD DUP1 SWAP2 SUB SWAP1 RETURN JUMPDEST PUSH2 0xBF PUSH1 0x4 DUP1 CALLDATASIZE SUB DUP2 ADD SWAP1 PUSH2 0xBA SWAP2 SWAP1 PUSH2 0xB26 JUMP JUMPDEST PUSH2 0x4B6 JUMP JUMPDEST PUSH1 0x40 MLOAD PUSH2 0xD3 SWAP9 SWAP8 SWAP7 SWAP6 SWAP5 SWAP4 SWAP3 SWAP2 SWAP1 PUSH2 0xD5F JUMP JUMPDEST PUSH1 0x40 MLOAD DUP1 SWAP2 SUB SWAP1 RETURN JUMPDEST PUSH2 0xF6 PUSH1 0x4 DUP1 CALLDATASIZE SUB DUP2 ADD SWAP1 PUSH2 0xF1 SWAP2 SWAP1 PUSH2 0xECF JUMP JUMPDEST PUSH2 0x7EA JUMP JUMPDEST STOP JUMPDEST PUSH1 0x0 DUP1 PUSH1 0x0 DUP6 DUP2 MSTORE PUSH1 0x20 ADD SWAP1 DUP2 MSTORE PUSH1 0x20 ADD PUSH1 0x0 KECCAK256 SWAP1 POP DUP3 DUP2 PUSH1 0x5 ADD SWAP1 DUP2 PUSH2 0x11F SWAP2 SWAP1 PUSH2 0x124D JUMP JUMPDEST POP DUP2 DUP2 PUSH1 0x6 ADD SWAP1 DUP2 PUSH2 0x131 SWAP2 SWAP1 PUSH2 0x124D JUMP JUMPDEST POP POP POP POP POP JUMP JUMPDEST PUSH1 0x0 PUSH1 0x20 MSTORE DUP1 PUSH1 0x0 MSTORE PUSH1 0x40 PUSH1 0x0 KECCAK256 PUSH1 0x0 SWAP2 POP SWAP1 POP DUP1 PUSH1 0x0 ADD SLOAD SWAP1 DUP1 PUSH1 0x1 ADD DUP1 SLOAD PUSH2 0x161 SWAP1 PUSH2 0x1070 JUMP JUMPDEST DUP1 PUSH1 0x1F ADD PUSH1 0x20 DUP1 SWAP2 DIV MUL PUSH1 0x20 ADD PUSH1 0x40 MLOAD SWAP1 DUP2 ADD PUSH1 0x40 MSTORE DUP1 SWAP3 SWAP2 SWAP1 DUP2 DUP2 MSTORE PUSH1 0x20 ADD DUP3 DUP1 SLOAD PUSH2 0x18D SWAP1 PUSH2 0x1070 JUMP JUMPDEST DUP1 ISZERO PUSH2 0x1DA JUMPI DUP1 PUSH1 0x1F LT PUSH2 0x1AF JUMPI PUSH2 0x100 DUP1 DUP4 SLOAD DIV MUL DUP4 MSTORE SWAP2 PUSH1 0x20 ADD SWAP2 PUSH2 0x1DA JUMP JUMPDEST DUP3 ADD SWAP2 SWAP1 PUSH1 0x0 MSTORE PUSH1 0x20 PUSH1 0x0 KECCAK256 SWAP1 JUMPDEST DUP2 SLOAD DUP2 MSTORE SWAP1 PUSH1 0x1 ADD SWAP1 PUSH1 0x20 ADD DUP1 DUP4 GT PUSH2 0x1BD JUMPI DUP3 SWAP1 SUB PUSH1 0x1F AND DUP3 ADD SWAP2 JUMPDEST POP POP POP POP POP SWAP1 DUP1 PUSH1 0x2 ADD DUP1 SLOAD PUSH2 0x1EF SWAP1 PUSH2 0x1070 JUMP JUMPDEST DUP1 PUSH1 0x1F ADD PUSH1 0x20 DUP1 SWAP2 DIV MUL PUSH1 0x20 ADD PUSH1 0x40 MLOAD SWAP1 DUP2 ADD PUSH1 0x40 MSTORE DUP1 SWAP3 SWAP2 SWAP1 DUP2 DUP2 MSTORE PUSH1 0x20 ADD DUP3 DUP1 SLOAD PUSH2 0x21B SWAP1 PUSH2 0x1070 JUMP JUMPDEST DUP1 ISZERO PUSH2 0x268 JUMPI DUP1 PUSH1 0x1F LT PUSH2 0x23D JUMPI PUSH2 0x100 DUP1 DUP4 SLOAD DIV MUL DUP4 MSTORE SWAP2 PUSH1 0x20 ADD SWAP2 PUSH2 0x268 JUMP JUMPDEST DUP3 ADD SWAP2 SWAP1 PUSH1 0x0 MSTORE PUSH1 0x20 PUSH1 0x0 KECCAK256 SWAP1 JUMPDEST DUP2 SLOAD DUP2 MSTORE SWAP1 PUSH1 0x1 ADD SWAP1 PUSH1 0x20 ADD DUP1 DUP4 GT PUSH2 0x24B JUMPI DUP3 SWAP1 SUB PUSH1 0x1F AND DUP3 ADD SWAP2 JUMPDEST POP POP POP POP POP SWAP1 DUP1 PUSH1 0x3 ADD DUP1 SLOAD PUSH2 0x27D SWAP1 PUSH2 0x1070 JUMP JUMPDEST DUP1 PUSH1 0x1F ADD PUSH1 0x20 DUP1 SWAP2 DIV MUL PUSH1 0x20 ADD PUSH1 0x40 MLOAD SWAP1 DUP2 ADD PUSH1 0x40 MSTORE DUP1 SWAP3 SWAP2 SWAP1 DUP2 DUP2 MSTORE PUSH1 0x20 ADD DUP3 DUP1 SLOAD PUSH2 0x2A9 SWAP1 PUSH2 0x1070 JUMP JUMPDEST DUP1 ISZERO PUSH2 0x2F6 JUMPI DUP1 PUSH1 0x1F LT PUSH2 0x2CB JUMPI PUSH2 0x100 DUP1 DUP4 SLOAD DIV MUL DUP4 MSTORE SWAP2 PUSH1 0x20 ADD SWAP2 PUSH2 0x2F6 JUMP JUMPDEST DUP3 ADD SWAP2 SWAP1 PUSH1 0x0 MSTORE PUSH1 0x20 PUSH1 0x0 KECCAK256 SWAP1 JUMPDEST DUP2 SLOAD DUP2 MSTORE SWAP1 PUSH1 0x1 ADD SWAP1 PUSH1 0x20 ADD DUP1 DUP4 GT PUSH2 0x2D9 JUMPI DUP3 SWAP1 SUB PUSH1 0x1F AND DUP3 ADD SWAP2 JUMPDEST POP POP POP POP POP SWAP1 DUP1 PUSH1 0x4 ADD DUP1 SLOAD PUSH2 0x30B SWAP1 PUSH2 0x1070 JUMP JUMPDEST DUP1 PUSH1 0x1F ADD PUSH1 0x20 DUP1 SWAP2 DIV MUL PUSH1 0x20 ADD PUSH1 0x40 MLOAD SWAP1 DUP2 ADD PUSH1 0x40 MSTORE DUP1 SWAP3 SWAP2 SWAP1 DUP2 DUP2 MSTORE PUSH1 0x20 ADD DUP3 DUP1 SLOAD PUSH2 0x337 SWAP1 PUSH2 0x1070 JUMP JUMPDEST DUP1 ISZERO PUSH2 0x384 JUMPI DUP1 PUSH1 0x1F LT PUSH2 0x359 JUMPI PUSH2 0x100 DUP1 DUP4 SLOAD DIV MUL DUP4 MSTORE SWAP2 PUSH1 0x20 ADD SWAP2 PUSH2 0x384 JUMP JUMPDEST DUP3 ADD SWAP2 SWAP1 PUSH1 0x0 MSTORE PUSH1 0x20 PUSH1 0x0 KECCAK256 SWAP1 JUMPDEST DUP2 SLOAD DUP2 MSTORE SWAP1 PUSH1 0x1 ADD SWAP1 PUSH1 0x20 ADD DUP1 DUP4 GT PUSH2 0x367 JUMPI DUP3 SWAP1 SUB PUSH1 0x1F AND DUP3 ADD SWAP2 JUMPDEST POP POP POP POP POP SWAP1 DUP1 PUSH1 0x5 ADD DUP1 SLOAD PUSH2 0x399 SWAP1 PUSH2 0x1070 JUMP JUMPDEST DUP1 PUSH1 0x1F ADD PUSH1 0x20 DUP1 SWAP2 DIV MUL PUSH1 0x20 ADD PUSH1 0x40 MLOAD SWAP1 DUP2 ADD PUSH1 0x40 MSTORE DUP1 SWAP3 SWAP2 SWAP1 DUP2 DUP2 MSTORE PUSH1 0x20 ADD DUP3 DUP1 SLOAD PUSH2 0x3C5 SWAP1 PUSH2 0x1070 JUMP JUMPDEST DUP1 ISZERO PUSH2 0x412 JUMPI DUP1 PUSH1 0x1F LT PUSH2 0x3E7 JUMPI PUSH2 0x100 DUP1 DUP4 SLOAD DIV MUL DUP4 MSTORE SWAP2 PUSH1 0x20 ADD SWAP2 PUSH2 0x412 JUMP JUMPDEST DUP3 ADD SWAP2 SWAP1 PUSH1 0x0 MSTORE PUSH1 0x20 PUSH1 0x0 KECCAK256 SWAP1 JUMPDEST DUP2 SLOAD DUP2 MSTORE SWAP1 PUSH1 0x1 ADD SWAP1 PUSH1 0x20 ADD DUP1 DUP4 GT PUSH2 0x3F5 JUMPI DUP3 SWAP1 SUB PUSH1 0x1F AND DUP3 ADD SWAP2 JUMPDEST POP POP POP POP POP SWAP1 DUP1 PUSH1 0x6 ADD DUP1 SLOAD PUSH2 0x427 SWAP1 PUSH2 0x1070 JUMP JUMPDEST DUP1 PUSH1 0x1F ADD PUSH1 0x20 DUP1 SWAP2 DIV MUL PUSH1 0x20 ADD PUSH1 0x40 MLOAD SWAP1 DUP2 ADD PUSH1 0x40 MSTORE DUP1 SWAP3 SWAP2 SWAP1 DUP2 DUP2 MSTORE PUSH1 0x20 ADD DUP3 DUP1 SLOAD PUSH2 0x453 SWAP1 PUSH2 0x1070 JUMP JUMPDEST DUP1 ISZERO PUSH2 0x4A0 JUMPI DUP1 PUSH1 0x1F LT PUSH2 0x475 JUMPI PUSH2 0x100 DUP1 DUP4 SLOAD DIV MUL DUP4 MSTORE SWAP2 PUSH1 0x20 ADD SWAP2 PUSH2 0x4A0 JUMP JUMPDEST DUP3 ADD SWAP2 SWAP1 PUSH1 0x0 MSTORE PUSH1 0x20 PUSH1 0x0 KECCAK256 SWAP1 JUMPDEST DUP2 SLOAD DUP2 MSTORE SWAP1 PUSH1 0x1 ADD SWAP1 PUSH1 0x20 ADD DUP1 DUP4 GT PUSH2 0x483 JUMPI DUP3 SWAP1 SUB PUSH1 0x1F AND DUP3 ADD SWAP2 JUMPDEST POP POP POP POP POP SWAP1 DUP1 PUSH1 0x7 ADD SLOAD SWAP1 DUP1 PUSH1 0x8 ADD SLOAD SWAP1 POP DUP10 JUMP JUMPDEST PUSH1 0x60 DUP1 PUSH1 0x60 DUP1 PUSH1 0x0 DUP1 PUSH1 0x60 DUP1 PUSH1 0x0 DUP1 PUSH1 0x0 DUP12 DUP2 MSTORE PUSH1 0x20 ADD SWAP1 DUP2 MSTORE PUSH1 0x20 ADD PUSH1 0x0 KECCAK256 SWAP1 POP DUP1 PUSH1 0x1 ADD DUP2 PUSH1 0x2 ADD DUP3 PUSH1 0x3 ADD DUP4 PUSH1 0x4 ADD DUP5 PUSH1 0x7 ADD SLOAD DUP6 PUSH1 0x8 ADD SLOAD DUP7 PUSH1 0x9 ADD DUP8 PUSH1 0xA ADD DUP8 DUP1 SLOAD PUSH2 0x506 SWAP1 PUSH2 0x1070 JUMP JUMPDEST DUP1 PUSH1 0x1F ADD PUSH1 0x20 DUP1 SWAP2 DIV MUL PUSH1 0x20 ADD PUSH1 0x40 MLOAD SWAP1 DUP2 ADD PUSH1 0x40 MSTORE DUP1 SWAP3 SWAP2 SWAP1 DUP2 DUP2 MSTORE PUSH1 0x20 ADD DUP3 DUP1 SLOAD PUSH2 0x532 SWAP1 PUSH2 0x1070 JUMP JUMPDEST DUP1 ISZERO PUSH2 0x57F JUMPI DUP1 PUSH1 0x1F LT PUSH2 0x554 JUMPI PUSH2 0x100 DUP1 DUP4 SLOAD DIV MUL DUP4 MSTORE SWAP2 PUSH1 0x20 ADD SWAP2 PUSH2 0x57F JUMP JUMPDEST DUP3 ADD SWAP2 SWAP1 PUSH1 0x0 MSTORE PUSH1 0x20 PUSH1 0x0 KECCAK256 SWAP1 JUMPDEST DUP2 SLOAD DUP2 MSTORE SWAP1 PUSH1 0x1 ADD SWAP1 PUSH1 0x20 ADD DUP1 DUP4 GT PUSH2 0x562 JUMPI DUP3 SWAP1 SUB PUSH1 0x1F AND DUP3 ADD SWAP2 JUMPDEST POP POP POP POP POP SWAP8 POP DUP7 DUP1 SLOAD PUSH2 0x592 SWAP1 PUSH2 0x1070 JUMP JUMPDEST DUP1 PUSH1 0x1F ADD PUSH1 0x20 DUP1 SWAP2 DIV MUL PUSH1 0x20 ADD PUSH1 0x40 MLOAD SWAP1 DUP2 ADD PUSH1 0x40 MSTORE DUP1 SWAP3 SWAP2 SWAP1 DUP2 DUP2 MSTORE PUSH1 0x20 ADD DUP3 DUP1 SLOAD PUSH2 0x5BE SWAP1 PUSH2 0x1070 JUMP JUMPDEST DUP1 ISZERO PUSH2 0x60B JUMPI DUP1 PUSH1 0x1F LT PUSH2 0x5E0 JUMPI PUSH2 0x100 DUP1 DUP4 SLOAD DIV MUL DUP4 MSTORE SWAP2 PUSH1 0x20 ADD SWAP2 PUSH2 0x60B JUMP JUMPDEST DUP3 ADD SWAP2 SWAP1 PUSH1 0x0 MSTORE PUSH1 0x20 PUSH1 0x0 KECCAK256 SWAP1 JUMPDEST DUP2 SLOAD DUP2 MSTORE SWAP1 PUSH1 0x1 ADD SWAP1 PUSH1 0x20 ADD DUP1 DUP4 GT PUSH2 0x5EE JUMPI DUP3 SWAP1 SUB PUSH1 0x1F AND DUP3 ADD SWAP2 JUMPDEST POP POP POP POP POP SWAP7 POP DUP6 DUP1 SLOAD PUSH2 0x61E SWAP1 PUSH2 0x1070 JUMP JUMPDEST DUP1 PUSH1 0x1F ADD PUSH1 0x20 DUP1 SWAP2 DIV MUL PUSH1 0x20 ADD PUSH1 0x40 MLOAD SWAP1 DUP2 ADD PUSH1 0x40 MSTORE DUP1 SWAP3 SWAP2 SWAP1 DUP2 DUP2 MSTORE PUSH1 0x20 ADD DUP3 DUP1 SLOAD PUSH2 0x64A SWAP1 PUSH2 0x1070 JUMP JUMPDEST DUP1 ISZERO PUSH2 0x697 JUMPI DUP1 PUSH1 0x1F LT PUSH2 0x66C JUMPI PUSH2 0x100 DUP1 DUP4 SLOAD DIV MUL DUP4 MSTORE SWAP2 PUSH1 0x20 ADD SWAP2 PUSH2 0x697 JUMP JUMPDEST DUP3 ADD SWAP2 SWAP1 PUSH1 0x0 MSTORE PUSH1 0x20 PUSH1 0x0 KECCAK256 SWAP1 JUMPDEST DUP2 SLOAD DUP2 MSTORE SWAP1 PUSH1 0x1 ADD SWAP1 PUSH1 0x20 ADD DUP1 DUP4 GT PUSH2 0x67A JUMPI DUP3 SWAP1 SUB PUSH1 0x1F AND DUP3 ADD SWAP2 JUMPDEST POP POP POP POP POP SWAP6 POP DUP5 DUP1 SLOAD PUSH2 0x6AA SWAP1 PUSH2 0x1070 JUMP JUMPDEST DUP1 PUSH1 0x1F ADD PUSH1 0x20 DUP1 SWAP2 DIV MUL PUSH1 0x20 ADD PUSH1 0x40 MLOAD SWAP1 DUP2 ADD PUSH1 0x40 MSTORE DUP1 SWAP3 SWAP2 SWAP1 DUP2 DUP2 MSTORE PUSH1 0x20 ADD DUP3 DUP1 SLOAD PUSH2 0x6D6 SWAP1 PUSH2 0x1070 JUMP JUMPDEST DUP1 ISZERO PUSH2 0x723 JUMPI DUP1 PUSH1 0x1F LT PUSH2 0x6F8 JUMPI PUSH2 0x100 DUP1 DUP4 SLOAD DIV MUL DUP4 MSTORE SWAP2 PUSH1 0x20 ADD SWAP2 PUSH2 0x723 JUMP JUMPDEST DUP3 ADD SWAP2 SWAP1 PUSH1 0x0 MSTORE PUSH1 0x20 PUSH1 0x0 KECCAK256 SWAP1 JUMPDEST DUP2 SLOAD DUP2 MSTORE SWAP1 PUSH1 0x1 ADD SWAP1 PUSH1 0x20 ADD DUP1 DUP4 GT PUSH2 0x706 JUMPI DUP3 SWAP1 SUB PUSH1 0x1F AND DUP3 ADD SWAP2 JUMPDEST POP POP POP POP POP SWAP5 POP DUP2 DUP1 SLOAD DUP1 PUSH1 0x20 MUL PUSH1 0x20 ADD PUSH1 0x40 MLOAD SWAP1 DUP2 ADD PUSH1 0x40 MSTORE DUP1 SWAP3 SWAP2 SWAP1 DUP2 DUP2 MSTORE PUSH1 0x20 ADD DUP3 DUP1 SLOAD DUP1 ISZERO PUSH2 0x775 JUMPI PUSH1 0x20 MUL DUP3 ADD SWAP2 SWAP1 PUSH1 0x0 MSTORE PUSH1 0x20 PUSH1 0x0 KECCAK256 SWAP1 JUMPDEST DUP2 SLOAD DUP2 MSTORE PUSH1 0x20 ADD SWAP1 PUSH1 0x1 ADD SWAP1 DUP1 DUP4 GT PUSH2 0x761 JUMPI JUMPDEST POP POP POP POP POP SWAP2 POP DUP1 DUP1 SLOAD DUP1 PUSH1 0x20 MUL PUSH1 0x20 ADD PUSH1 0x40 MLOAD SWAP1 DUP2 ADD PUSH1 0x40 MSTORE DUP1 SWAP3 SWAP2 SWAP1 DUP2 DUP2 MSTORE PUSH1 0x20 ADD DUP3 DUP1 SLOAD DUP1 ISZERO PUSH2 0x7C7 JUMPI PUSH1 0x20 MUL DUP3 ADD SWAP2 SWAP1 PUSH1 0x0 MSTORE PUSH1 0x20 PUSH1 0x0 KECCAK256 SWAP1 JUMPDEST DUP2 SLOAD DUP2 MSTORE PUSH1 0x20 ADD SWAP1 PUSH1 0x1 ADD SWAP1 DUP1 DUP4 GT PUSH2 0x7B3 JUMPI JUMPDEST POP POP POP POP POP SWAP1 POP SWAP9 POP SWAP9 POP SWAP9 POP SWAP9 POP SWAP9 POP SWAP9 POP SWAP9 POP SWAP9 POP POP SWAP2 SWAP4 SWAP6 SWAP8 POP SWAP2 SWAP4 SWAP6 SWAP8 JUMP JUMPDEST PUSH1 0x0 DUP1 PUSH1 0x0 DUP12 DUP2 MSTORE PUSH1 0x20 ADD SWAP1 DUP2 MSTORE PUSH1 0x20 ADD PUSH1 0x0 KECCAK256 SWAP1 POP DUP10 DUP2 PUSH1 0x0 ADD DUP2 SWAP1 SSTORE POP DUP9 DUP2 PUSH1 0x1 ADD SWAP1 DUP2 PUSH2 0x81A SWAP2 SWAP1 PUSH2 0x124D JUMP JUMPDEST POP DUP8 DUP2 PUSH1 0x4 ADD SWAP1 DUP2 PUSH2 0x82C SWAP2 SWAP1 PUSH2 0x124D JUMP JUMPDEST POP DUP7 DUP2 PUSH1 0x3 ADD SWAP1 DUP2 PUSH2 0x83E SWAP2 SWAP1 PUSH2 0x124D JUMP JUMPDEST POP DUP6 DUP2 PUSH1 0x2 ADD SWAP1 DUP2 PUSH2 0x850 SWAP2 SWAP1 PUSH2 0x124D JUMP JUMPDEST POP DUP5 DUP2 PUSH1 0x7 ADD DUP2 SWAP1 SSTORE POP DUP4 DUP2 PUSH1 0x8 ADD DUP2 SWAP1 SSTORE POP DUP3 DUP2 PUSH1 0x9 ADD SWAP1 DUP1 MLOAD SWAP1 PUSH1 0x20 ADD SWAP1 PUSH2 0x87B SWAP3 SWAP2 SWAP1 PUSH2 0x8A1 JUMP JUMPDEST POP DUP2 DUP2 PUSH1 0xA ADD SWAP1 DUP1 MLOAD SWAP1 PUSH1 0x20 ADD SWAP1 PUSH2 0x894 SWAP3 SWAP2 SWAP1 PUSH2 0x8A1 JUMP JUMPDEST POP POP POP POP POP POP POP POP POP POP POP JUMP JUMPDEST DUP3 DUP1 SLOAD DUP3 DUP3 SSTORE SWAP1 PUSH1 0x0 MSTORE PUSH1 0x20 PUSH1 0x0 KECCAK256 SWAP1 DUP2 ADD SWAP3 DUP3 ISZERO PUSH2 0x8DD JUMPI SWAP2 PUSH1 0x20 MUL DUP3 ADD JUMPDEST DUP3 DUP2 GT ISZERO PUSH2 0x8DC JUMPI DUP3 MLOAD DUP3 SSTORE SWAP2 PUSH1 0x20 ADD SWAP2 SWAP1 PUSH1 0x1 ADD SWAP1 PUSH2 0x8C1 JUMP JUMPDEST JUMPDEST POP SWAP1 POP PUSH2 0x8EA SWAP2 SWAP1 PUSH2 0x8EE JUMP JUMPDEST POP SWAP1 JUMP JUMPDEST JUMPDEST DUP1 DUP3 GT ISZERO PUSH2 0x907 JUMPI PUSH1 0x0 DUP2 PUSH1 0x0 SWAP1 SSTORE POP PUSH1 0x1 ADD PUSH2 0x8EF JUMP JUMPDEST POP SWAP1 JUMP JUMPDEST PUSH1 0x0 PUSH1 0x40 MLOAD SWAP1 POP SWAP1 JUMP JUMPDEST PUSH1 0x0 DUP1 REVERT JUMPDEST PUSH1 0x0 DUP1 REVERT JUMPDEST PUSH1 0x0 DUP2 SWAP1 POP SWAP2 SWAP1 POP JUMP JUMPDEST PUSH2 0x932 DUP2 PUSH2 0x91F JUMP JUMPDEST DUP2 EQ PUSH2 0x93D JUMPI PUSH1 0x0 DUP1 REVERT JUMPDEST POP JUMP JUMPDEST PUSH1 0x0 DUP2 CALLDATALOAD SWAP1 POP PUSH2 0x94F DUP2 PUSH2 0x929 JUMP JUMPDEST SWAP3 SWAP2 POP POP JUMP JUMPDEST PUSH1 0x0 DUP1 REVERT JUMPDEST PUSH1 0x0 DUP1 REVERT JUMPDEST PUSH1 0x0 PUSH1 0x1F NOT PUSH1 0x1F DUP4 ADD AND SWAP1 POP SWAP2 SWAP1 POP JUMP JUMPDEST PUSH32 0x4E487B7100000000000000000000000000000000000000000000000000000000 PUSH1 0x0 MSTORE PUSH1 0x41 PUSH1 0x4 MSTORE PUSH1 0x24 PUSH1 0x0 REVERT JUMPDEST PUSH2 0x9A8 DUP3 PUSH2 0x95F JUMP JUMPDEST DUP2 ADD DUP2 DUP2 LT PUSH8 0xFFFFFFFFFFFFFFFF DUP3 GT OR ISZERO PUSH2 0x9C7 JUMPI PUSH2 0x9C6 PUSH2 0x970 JUMP JUMPDEST JUMPDEST DUP1 PUSH1 0x40 MSTORE POP POP POP JUMP JUMPDEST PUSH1 0x0 PUSH2 0x9DA PUSH2 0x90B JUMP JUMPDEST SWAP1 POP PUSH2 0x9E6 DUP3 DUP3 PUSH2 0x99F JUMP JUMPDEST SWAP2 SWAP1 POP JUMP JUMPDEST PUSH1 0x0 PUSH8 0xFFFFFFFFFFFFFFFF DUP3 GT ISZERO PUSH2 0xA06 JUMPI PUSH2 0xA05 PUSH2 0x970 JUMP JUMPDEST JUMPDEST PUSH2 0xA0F DUP3 PUSH2 0x95F JUMP JUMPDEST SWAP1 POP PUSH1 0x20 DUP2 ADD SWAP1 POP SWAP2 SWAP1 POP JUMP JUMPDEST DUP3 DUP2 DUP4 CALLDATACOPY PUSH1 0x0 DUP4 DUP4 ADD MSTORE POP POP POP JUMP JUMPDEST PUSH1 0x0 PUSH2 0xA3E PUSH2 0xA39 DUP5 PUSH2 0x9EB JUMP JUMPDEST PUSH2 0x9D0 JUMP JUMPDEST SWAP1 POP DUP3 DUP2 MSTORE PUSH1 0x20 DUP2 ADD DUP5 DUP5 DUP5 ADD GT ISZERO PUSH2 0xA5A JUMPI PUSH2 0xA59 PUSH2 0x95A JUMP JUMPDEST JUMPDEST PUSH2 0xA65 DUP5 DUP3 DUP6 PUSH2 0xA1C JUMP JUMPDEST POP SWAP4 SWAP3 POP POP POP JUMP JUMPDEST PUSH1 0x0 DUP3 PUSH1 0x1F DUP4 ADD SLT PUSH2 0xA82 JUMPI PUSH2 0xA81 PUSH2 0x955 JUMP JUMPDEST JUMPDEST DUP2 CALLDATALOAD PUSH2 0xA92 DUP5 DUP3 PUSH1 0x20 DUP7 ADD PUSH2 0xA2B JUMP JUMPDEST SWAP2 POP POP SWAP3 SWAP2 POP POP JUMP JUMPDEST PUSH1 0x0 DUP1 PUSH1 0x0 PUSH1 0x60 DUP5 DUP7 SUB SLT ISZERO PUSH2 0xAB4 JUMPI PUSH2 0xAB3 PUSH2 0x915 JUMP JUMPDEST JUMPDEST PUSH1 0x0 PUSH2 0xAC2 DUP7 DUP3 DUP8 ADD PUSH2 0x940 JUMP JUMPDEST SWAP4 POP POP PUSH1 0x20 DUP5 ADD CALLDATALOAD PUSH8 0xFFFFFFFFFFFFFFFF DUP2 GT ISZERO PUSH2 0xAE3 JUMPI PUSH2 0xAE2 PUSH2 0x91A JUMP JUMPDEST JUMPDEST PUSH2 0xAEF DUP7 DUP3 DUP8 ADD PUSH2 0xA6D JUMP JUMPDEST SWAP3 POP POP PUSH1 0x40 DUP5 ADD CALLDATALOAD PUSH8 0xFFFFFFFFFFFFFFFF DUP2 GT ISZERO PUSH2 0xB10 JUMPI PUSH2 0xB0F PUSH2 0x91A JUMP JUMPDEST JUMPDEST PUSH2 0xB1C DUP7 DUP3 DUP8 ADD PUSH2 0xA6D JUMP JUMPDEST SWAP2 POP POP SWAP3 POP SWAP3 POP SWAP3 JUMP JUMPDEST PUSH1 0x0 PUSH1 0x20 DUP3 DUP5 SUB SLT ISZERO PUSH2 0xB3C JUMPI PUSH2 0xB3B PUSH2 0x915 JUMP JUMPDEST JUMPDEST PUSH1 0x0 PUSH2 0xB4A DUP5 DUP3 DUP6 ADD PUSH2 0x940 JUMP JUMPDEST SWAP2 POP POP SWAP3 SWAP2 POP POP JUMP JUMPDEST PUSH2 0xB5C DUP2 PUSH2 0x91F JUMP JUMPDEST DUP3 MSTORE POP POP JUMP JUMPDEST PUSH1 0x0 DUP2 MLOAD SWAP1 POP SWAP2 SWAP1 POP JUMP JUMPDEST PUSH1 0x0 DUP3 DUP3 MSTORE PUSH1 0x20 DUP3 ADD SWAP1 POP SWAP3 SWAP2 POP POP JUMP JUMPDEST PUSH1 0x0 JUMPDEST DUP4 DUP2 LT ISZERO PUSH2 0xB9C JUMPI DUP1 DUP3 ADD MLOAD DUP2 DUP5 ADD MSTORE PUSH1 0x20 DUP2 ADD SWAP1 POP PUSH2 0xB81 JUMP JUMPDEST DUP4 DUP2 GT ISZERO PUSH2 0xBAB JUMPI PUSH1 0x0 DUP5 DUP5 ADD MSTORE JUMPDEST POP POP POP POP JUMP JUMPDEST PUSH1 0x0 PUSH2 0xBBC DUP3 PUSH2 0xB62 JUMP JUMPDEST PUSH2 0xBC6 DUP2 DUP6 PUSH2 0xB6D JUMP JUMPDEST SWAP4 POP PUSH2 0xBD6 DUP2 DUP6 PUSH1 0x20 DUP7 ADD PUSH2 0xB7E JUMP JUMPDEST PUSH2 0xBDF DUP2 PUSH2 0x95F JUMP JUMPDEST DUP5 ADD SWAP2 POP POP SWAP3 SWAP2 POP POP JUMP JUMPDEST PUSH1 0x0 PUSH2 0x120 DUP3 ADD SWAP1 POP PUSH2 0xC00 PUSH1 0x0 DUP4 ADD DUP13 PUSH2 0xB53 JUMP JUMPDEST DUP2 DUP2 SUB PUSH1 0x20 DUP4 ADD MSTORE PUSH2 0xC12 DUP2 DUP12 PUSH2 0xBB1 JUMP JUMPDEST SWAP1 POP DUP2 DUP2 SUB PUSH1 0x40 DUP4 ADD MSTORE PUSH2 0xC26 DUP2 DUP11 PUSH2 0xBB1 JUMP JUMPDEST SWAP1 POP DUP2 DUP2 SUB PUSH1 0x60 DUP4 ADD MSTORE PUSH2 0xC3A DUP2 DUP10 PUSH2 0xBB1 JUMP JUMPDEST SWAP1 POP DUP2 DUP2 SUB PUSH1 0x80 DUP4 ADD MSTORE PUSH2 0xC4E DUP2 DUP9 PUSH2 0xBB1 JUMP JUMPDEST SWAP1 POP DUP2 DUP2 SUB PUSH1 0xA0 DUP4 ADD MSTORE PUSH2 0xC62 DUP2 DUP8 PUSH2 0xBB1 JUMP JUMPDEST SWAP1 POP DUP2 DUP2 SUB PUSH1 0xC0 DUP4 ADD MSTORE PUSH2 0xC76 DUP2 DUP7 PUSH2 0xBB1 JUMP JUMPDEST SWAP1 POP PUSH2 0xC85 PUSH1 0xE0 DUP4 ADD DUP6 PUSH2 0xB53 JUMP JUMPDEST PUSH2 0xC93 PUSH2 0x100 DUP4 ADD DUP5 PUSH2 0xB53 JUMP JUMPDEST SWAP11 SWAP10 POP POP POP POP POP POP POP POP POP POP JUMP JUMPDEST PUSH1 0x0 DUP2 MLOAD SWAP1 POP SWAP2 SWAP1 POP JUMP JUMPDEST PUSH1 0x0 DUP3 DUP3 MSTORE PUSH1 0x20 DUP3 ADD SWAP1 POP SWAP3 SWAP2 POP POP JUMP JUMPDEST PUSH1 0x0 DUP2 SWAP1 POP PUSH1 0x20 DUP3 ADD SWAP1 POP SWAP2 SWAP1 POP JUMP JUMPDEST PUSH2 0xCD6 DUP2 PUSH2 0x91F JUMP JUMPDEST DUP3 MSTORE POP POP JUMP JUMPDEST PUSH1 0x0 PUSH2 0xCE8 DUP4 DUP4 PUSH2 0xCCD JUMP JUMPDEST PUSH1 0x20 DUP4 ADD SWAP1 POP SWAP3 SWAP2 POP POP JUMP JUMPDEST PUSH1 0x0 PUSH1 0x20 DUP3 ADD SWAP1 POP SWAP2 SWAP1 POP JUMP JUMPDEST PUSH1 0x0 PUSH2 0xD0C DUP3 PUSH2 0xCA1 JUMP JUMPDEST PUSH2 0xD16 DUP2 DUP6 PUSH2 0xCAC JUMP JUMPDEST SWAP4 POP PUSH2 0xD21 DUP4 PUSH2 0xCBD JUMP JUMPDEST DUP1 PUSH1 0x0 JUMPDEST DUP4 DUP2 LT ISZERO PUSH2 0xD52 JUMPI DUP2 MLOAD PUSH2 0xD39 DUP9 DUP3 PUSH2 0xCDC JUMP JUMPDEST SWAP8 POP PUSH2 0xD44 DUP4 PUSH2 0xCF4 JUMP JUMPDEST SWAP3 POP POP PUSH1 0x1 DUP2 ADD SWAP1 POP PUSH2 0xD25 JUMP JUMPDEST POP DUP6 SWAP4 POP POP POP POP SWAP3 SWAP2 POP POP JUMP JUMPDEST PUSH1 0x0 PUSH2 0x100 DUP3 ADD SWAP1 POP DUP2 DUP2 SUB PUSH1 0x0 DUP4 ADD MSTORE PUSH2 0xD7A DUP2 DUP12 PUSH2 0xBB1 JUMP JUMPDEST SWAP1 POP DUP2 DUP2 SUB PUSH1 0x20 DUP4 ADD MSTORE PUSH2 0xD8E DUP2 DUP11 PUSH2 0xBB1 JUMP JUMPDEST SWAP1 POP DUP2 DUP2 SUB PUSH1 0x40 DUP4 ADD MSTORE PUSH2 0xDA2 DUP2 DUP10 PUSH2 0xBB1 JUMP JUMPDEST SWAP1 POP DUP2 DUP2 SUB PUSH1 0x60 DUP4 ADD MSTORE PUSH2 0xDB6 DUP2 DUP9 PUSH2 0xBB1 JUMP JUMPDEST SWAP1 POP PUSH2 0xDC5 PUSH1 0x80 DUP4 ADD DUP8 PUSH2 0xB53 JUMP JUMPDEST PUSH2 0xDD2 PUSH1 0xA0 DUP4 ADD DUP7 PUSH2 0xB53 JUMP JUMPDEST DUP2 DUP2 SUB PUSH1 0xC0 DUP4 ADD MSTORE PUSH2 0xDE4 DUP2 DUP6 PUSH2 0xD01 JUMP JUMPDEST SWAP1 POP DUP2 DUP2 SUB PUSH1 0xE0 DUP4 ADD MSTORE PUSH2 0xDF8 DUP2 DUP5 PUSH2 0xD01 JUMP JUMPDEST SWAP1 POP SWAP10 SWAP9 POP POP POP POP POP POP POP POP POP JUMP JUMPDEST PUSH1 0x0 PUSH8 0xFFFFFFFFFFFFFFFF DUP3 GT ISZERO PUSH2 0xE22 JUMPI PUSH2 0xE21 PUSH2 0x970 JUMP JUMPDEST JUMPDEST PUSH1 0x20 DUP3 MUL SWAP1 POP PUSH1 0x20 DUP2 ADD SWAP1 POP SWAP2 SWAP1 POP JUMP JUMPDEST PUSH1 0x0 DUP1 REVERT JUMPDEST PUSH1 0x0 PUSH2 0xE4B PUSH2 0xE46 DUP5 PUSH2 0xE07 JUMP JUMPDEST PUSH2 0x9D0 JUMP JUMPDEST SWAP1 POP DUP1 DUP4 DUP3 MSTORE PUSH1 0x20 DUP3 ADD SWAP1 POP PUSH1 0x20 DUP5 MUL DUP4 ADD DUP6 DUP2 GT ISZERO PUSH2 0xE6E JUMPI PUSH2 0xE6D PUSH2 0xE33 JUMP JUMPDEST JUMPDEST DUP4 JUMPDEST DUP2 DUP2 LT ISZERO PUSH2 0xE97 JUMPI DUP1 PUSH2 0xE83 DUP9 DUP3 PUSH2 0x940 JUMP JUMPDEST DUP5 MSTORE PUSH1 0x20 DUP5 ADD SWAP4 POP POP PUSH1 0x20 DUP2 ADD SWAP1 POP PUSH2 0xE70 JUMP JUMPDEST POP POP POP SWAP4 SWAP3 POP POP POP JUMP JUMPDEST PUSH1 0x0 DUP3 PUSH1 0x1F DUP4 ADD SLT PUSH2 0xEB6 JUMPI PUSH2 0xEB5 PUSH2 0x955 JUMP JUMPDEST JUMPDEST DUP2 CALLDATALOAD PUSH2 0xEC6 DUP5 DUP3 PUSH1 0x20 DUP7 ADD PUSH2 0xE38 JUMP JUMPDEST SWAP2 POP POP SWAP3 SWAP2 POP POP JUMP JUMPDEST PUSH1 0x0 DUP1 PUSH1 0x0 DUP1 PUSH1 0x0 DUP1 PUSH1 0x0 DUP1 PUSH1 0x0 PUSH2 0x120 DUP11 DUP13 SUB SLT ISZERO PUSH2 0xEF2 JUMPI PUSH2 0xEF1 PUSH2 0x915 JUMP JUMPDEST JUMPDEST PUSH1 0x0 PUSH2 0xF00 DUP13 DUP3 DUP14 ADD PUSH2 0x940 JUMP JUMPDEST SWAP10 POP POP PUSH1 0x20 DUP11 ADD CALLDATALOAD PUSH8 0xFFFFFFFFFFFFFFFF DUP2 GT ISZERO PUSH2 0xF21 JUMPI PUSH2 0xF20 PUSH2 0x91A JUMP JUMPDEST JUMPDEST PUSH2 0xF2D DUP13 DUP3 DUP14 ADD PUSH2 0xA6D JUMP JUMPDEST SWAP9 POP POP PUSH1 0x40 DUP11 ADD CALLDATALOAD PUSH8 0xFFFFFFFFFFFFFFFF DUP2 GT ISZERO PUSH2 0xF4E JUMPI PUSH2 0xF4D PUSH2 0x91A JUMP JUMPDEST JUMPDEST PUSH2 0xF5A DUP13 DUP3 DUP14 ADD PUSH2 0xA6D JUMP JUMPDEST SWAP8 POP POP PUSH1 0x60 DUP11 ADD CALLDATALOAD PUSH8 0xFFFFFFFFFFFFFFFF DUP2 GT ISZERO PUSH2 0xF7B JUMPI PUSH2 0xF7A PUSH2 0x91A JUMP JUMPDEST JUMPDEST PUSH2 0xF87 DUP13 DUP3 DUP14 ADD PUSH2 0xA6D JUMP JUMPDEST SWAP7 POP POP PUSH1 0x80 DUP11 ADD CALLDATALOAD PUSH8 0xFFFFFFFFFFFFFFFF DUP2 GT ISZERO PUSH2 0xFA8 JUMPI PUSH2 0xFA7 PUSH2 0x91A JUMP JUMPDEST JUMPDEST PUSH2 0xFB4 DUP13 DUP3 DUP14 ADD PUSH2 0xA6D JUMP JUMPDEST SWAP6 POP POP PUSH1 0xA0 PUSH2 0xFC5 DUP13 DUP3 DUP14 ADD PUSH2 0x940 JUMP JUMPDEST SWAP5 POP POP PUSH1 0xC0 PUSH2 0xFD6 DUP13 DUP3 DUP14 ADD PUSH2 0x940 JUMP JUMPDEST SWAP4 POP POP PUSH1 0xE0 DUP11 ADD CALLDATALOAD PUSH8 0xFFFFFFFFFFFFFFFF DUP2 GT ISZERO PUSH2 0xFF7 JUMPI PUSH2 0xFF6 PUSH2 0x91A JUMP JUMPDEST JUMPDEST PUSH2 0x1003 DUP13 DUP3 DUP14 ADD PUSH2 0xEA1 JUMP JUMPDEST SWAP3 POP POP PUSH2 0x100 DUP11 ADD CALLDATALOAD PUSH8 0xFFFFFFFFFFFFFFFF DUP2 GT ISZERO PUSH2 0x1025 JUMPI PUSH2 0x1024 PUSH2 0x91A JUMP JUMPDEST JUMPDEST PUSH2 0x1031 DUP13 DUP3 DUP14 ADD PUSH2 0xEA1 JUMP JUMPDEST SWAP2 POP POP SWAP3 SWAP6 SWAP9 POP SWAP3 SWAP6 SWAP9 POP SWAP3 SWAP6 SWAP9 JUMP JUMPDEST PUSH32 0x4E487B7100000000000000000000000000000000000000000000000000000000 PUSH1 0x0 MSTORE PUSH1 0x22 PUSH1 0x4 MSTORE PUSH1 0x24 PUSH1 0x0 REVERT JUMPDEST PUSH1 0x0 PUSH1 0x2 DUP3 DIV SWAP1 POP PUSH1 0x1 DUP3 AND DUP1 PUSH2 0x1088 JUMPI PUSH1 0x7F DUP3 AND SWAP2 POP JUMPDEST PUSH1 0x20 DUP3 LT DUP2 SUB PUSH2 0x109B JUMPI PUSH2 0x109A PUSH2 0x1041 JUMP JUMPDEST JUMPDEST POP SWAP2 SWAP1 POP JUMP JUMPDEST PUSH1 0x0 DUP2 SWAP1 POP DUP2 PUSH1 0x0 MSTORE PUSH1 0x20 PUSH1 0x0 KECCAK256 SWAP1 POP SWAP2 SWAP1 POP JUMP JUMPDEST PUSH1 0x0 PUSH1 0x20 PUSH1 0x1F DUP4 ADD DIV SWAP1 POP SWAP2 SWAP1 POP JUMP JUMPDEST PUSH1 0x0 DUP3 DUP3 SHL SWAP1 POP SWAP3 SWAP2 POP POP JUMP JUMPDEST PUSH1 0x0 PUSH1 0x8 DUP4 MUL PUSH2 0x1103 PUSH32 0xFFFFFFFFFFFFFFFFFFFFFFFFFFFFFFFFFFFFFFFFFFFFFFFFFFFFFFFFFFFFFFFF DUP3 PUSH2 0x10C6 JUMP JUMPDEST PUSH2 0x110D DUP7 DUP4 PUSH2 0x10C6 JUMP JUMPDEST SWAP6 POP DUP1 NOT DUP5 AND SWAP4 POP DUP1 DUP7 AND DUP5 OR SWAP3 POP POP POP SWAP4 SWAP3 POP POP POP JUMP JUMPDEST PUSH1 0x0 DUP2 SWAP1 POP SWAP2 SWAP1 POP JUMP JUMPDEST PUSH1 0x0 PUSH2 0x114A PUSH2 0x1145 PUSH2 0x1140 DUP5 PUSH2 0x91F JUMP JUMPDEST PUSH2 0x1125 JUMP JUMPDEST PUSH2 0x91F JUMP JUMPDEST SWAP1 POP SWAP2 SWAP1 POP JUMP JUMPDEST PUSH1 0x0 DUP2 SWAP1 POP SWAP2 SWAP1 POP JUMP JUMPDEST PUSH2 0x1164 DUP4 PUSH2 0x112F JUMP JUMPDEST PUSH2 0x1178 PUSH2 0x1170 DUP3 PUSH2 0x1151 JUMP JUMPDEST DUP5 DUP5 SLOAD PUSH2 0x10D3 JUMP JUMPDEST DUP3 SSTORE POP POP POP POP JUMP JUMPDEST PUSH1 0x0 SWAP1 JUMP JUMPDEST PUSH2 0x118D PUSH2 0x1180 JUMP JUMPDEST PUSH2 0x1198 DUP2 DUP5 DUP5 PUSH2 0x115B JUMP JUMPDEST POP POP POP JUMP JUMPDEST JUMPDEST DUP2 DUP2 LT ISZERO PUSH2 0x11BC JUMPI PUSH2 0x11B1 PUSH1 0x0 DUP3 PUSH2 0x1185 JUMP JUMPDEST PUSH1 0x1 DUP2 ADD SWAP1 POP PUSH2 0x119E JUMP JUMPDEST POP POP JUMP JUMPDEST PUSH1 0x1F DUP3 GT ISZERO PUSH2 0x1201 JUMPI PUSH2 0x11D2 DUP2 PUSH2 0x10A1 JUMP JUMPDEST PUSH2 0x11DB DUP5 PUSH2 0x10B6 JUMP JUMPDEST DUP2 ADD PUSH1 0x20 DUP6 LT ISZERO PUSH2 0x11EA JUMPI DUP2 SWAP1 POP JUMPDEST PUSH2 0x11FE PUSH2 0x11F6 DUP6 PUSH2 0x10B6 JUMP JUMPDEST DUP4 ADD DUP3 PUSH2 0x119D JUMP JUMPDEST POP POP JUMPDEST POP POP POP JUMP JUMPDEST PUSH1 0x0 DUP3 DUP3 SHR SWAP1 POP SWAP3 SWAP2 POP POP JUMP JUMPDEST PUSH1 0x0 PUSH2 0x1224 PUSH1 0x0 NOT DUP5 PUSH1 0x8 MUL PUSH2 0x1206 JUMP JUMPDEST NOT DUP1 DUP4 AND SWAP2 POP POP SWAP3 SWAP2 POP POP JUMP JUMPDEST PUSH1 0x0 PUSH2 0x123D DUP4 DUP4 PUSH2 0x1213 JUMP JUMPDEST SWAP2 POP DUP3 PUSH1 0x2 MUL DUP3 OR SWAP1 POP SWAP3 SWAP2 POP POP JUMP JUMPDEST PUSH2 0x1256 DUP3 PUSH2 0xB62 JUMP JUMPDEST PUSH8 0xFFFFFFFFFFFFFFFF DUP2 GT ISZERO PUSH2 0x126F JUMPI PUSH2 0x126E PUSH2 0x970 JUMP JUMPDEST JUMPDEST PUSH2 0x1279 DUP3 SLOAD PUSH2 0x1070 JUMP JUMPDEST PUSH2 0x1284 DUP3 DUP3 DUP6 PUSH2 0x11C0 JUMP JUMPDEST PUSH1 0x0 PUSH1 0x20 SWAP1 POP PUSH1 0x1F DUP4 GT PUSH1 0x1 DUP2 EQ PUSH2 0x12B7 JUMPI PUSH1 0x0 DUP5 ISZERO PUSH2 0x12A5 JUMPI DUP3 DUP8 ADD MLOAD SWAP1 POP JUMPDEST PUSH2 0x12AF DUP6 DUP3 PUSH2 0x1231 JUMP JUMPDEST DUP7 SSTORE POP PUSH2 0x1317 JUMP JUMPDEST PUSH1 0x1F NOT DUP5 AND PUSH2 0x12C5 DUP7 PUSH2 0x10A1 JUMP JUMPDEST PUSH1 0x0 JUMPDEST DUP3 DUP2 LT ISZERO PUSH2 0x12ED JUMPI DUP5 DUP10 ADD MLOAD DUP3 SSTORE PUSH1 0x1 DUP3 ADD SWAP2 POP PUSH1 0x20 DUP6 ADD SWAP5 POP PUSH1 0x20 DUP2 ADD SWAP1 POP PUSH2 0x12C8 JUMP JUMPDEST DUP7 DUP4 LT ISZERO PUSH2 0x130A JUMPI DUP5 DUP10 ADD MLOAD PUSH2 0x1306 PUSH1 0x1F DUP10 AND DUP3 PUSH2 0x1213 JUMP JUMPDEST DUP4 SSTORE POP JUMPDEST PUSH1 0x1 PUSH1 0x2 DUP9 MUL ADD DUP9 SSTORE POP POP POP JUMPDEST POP POP POP POP POP POP JUMP INVALID LOG2 PUSH5 0x6970667358 0x22 SLT KECCAK256 SMOD 0x4F 0xE4 LOG2 0xF7 0xE6 AND NUMBER CALLVALUE 0x23 OR DUP8 0x25 EXP 0x1F 0x26 PUSH9 0xEFEAED51BB94D50D89 PUSH19 0xEB83ECC2FB64736F6C634300080F0033000000 "},"methodIdentifiers":{"containerDetail(uint256)":"771a600c","containerUnload(uint256,string,string)":"4f8094a2","generateOrder(uint256,string,string,string,string,uint256,uint256,uint256[],uint256[])":"b44dabfa","getOrderbyContainerID(uint256)":"778a6e1b"}}}}}