{
  "_format": "hh-sol-artifact-1",
  "contractName": "SupplyChain",
  "sourceName": "contracts/SupplyChain.sol",
  "abi": [
    {
      "inputs": [
        {
          "internalType": "uint256",
          "name": "",
          "type": "uint256"
        }
      ],
      "name": "containerDetail",
      "outputs": [
        {
          "internalType": "uint256",
          "name": "container",
          "type": "uint256"
        },
        {
          "internalType": "string",
          "name": "dateOfDept",
          "type": "string"
        },
        {
          "internalType": "string",
          "name": "placeOfDept",
          "type": "string"
        },
        {
          "internalType": "string",
          "name": "expectArrivalDate",
          "type": "string"
        },
        {
          "internalType": "string",
          "name": "expArrivalLocation",
          "type": "string"
        },
        {
          "internalType": "string",
          "name": "dateUnloaded",
          "type": "string"
        },
        {
          "internalType": "string",
          "name": "locationUnloaded",
          "type": "string"
        },
        {
          "internalType": "uint256",
          "name": "vessel",
          "type": "uint256"
        },
        {
          "internalType": "uint256",
          "name": "voyage",
          "type": "uint256"
        }
      ],
      "stateMutability": "view",
      "type": "function"
    },
    {
      "inputs": [
        {
          "internalType": "uint256",
          "name": "_containerID",
          "type": "uint256"
        },
        {
          "internalType": "string",
          "name": "_dateUnloaded",
          "type": "string"
        },
        {
          "internalType": "string",
          "name": "_locationUnloaded",
          "type": "string"
        },
        {
          "internalType": "uint256[]",
          "name": "_recievedCartons",
          "type": "uint256[]"
        }
      ],
      "name": "containerUnload",
      "outputs": [],
      "stateMutability": "nonpayable",
      "type": "function"
    },
    {
      "inputs": [
        {
          "internalType": "uint256",
          "name": "_container",
          "type": "uint256"
        },
        {
          "internalType": "string",
          "name": "_dateOfDept",
          "type": "string"
        },
        {
          "internalType": "string",
          "name": "_placeOfDept",
          "type": "string"
        },
        {
          "internalType": "string",
          "name": "_expDateOfArrival",
          "type": "string"
        },
        {
          "internalType": "string",
          "name": "_expLocationOfArrival",
          "type": "string"
        },
        {
          "internalType": "uint256",
          "name": "_vessel",
          "type": "uint256"
        },
        {
          "internalType": "uint256",
          "name": "_voyage",
          "type": "uint256"
        },
        {
          "internalType": "uint256[]",
          "name": "UPC_ShippedCartons",
          "type": "uint256[]"
        }
      ],
      "name": "generateOrder",
      "outputs": [],
      "stateMutability": "nonpayable",
      "type": "function"
    },
    {
      "inputs": [
        {
          "internalType": "uint256",
          "name": "_containerID",
          "type": "uint256"
        }
      ],
      "name": "getOrderbyContainerID",
      "outputs": [
        {
          "internalType": "string",
          "name": "",
          "type": "string"
        },
        {
          "internalType": "string",
          "name": "",
          "type": "string"
        },
        {
          "internalType": "string",
          "name": "",
          "type": "string"
        },
        {
          "internalType": "string",
          "name": "",
          "type": "string"
        },
        {
          "internalType": "uint256",
          "name": "",
          "type": "uint256"
        },
        {
          "internalType": "uint256",
          "name": "",
          "type": "uint256"
        },
        {
          "internalType": "uint256[]",
          "name": "",
          "type": "uint256[]"
        },
        {
          "internalType": "uint256[]",
          "name": "",
          "type": "uint256[]"
        }
      ],
      "stateMutability": "view",
      "type": "function"
    }
  ],
  "bytecode": "0x608060405234801561001057600080fd5b5061156f806100206000396000f3fe608060405234801561001057600080fd5b506004361061004c5760003560e01c80632de8fd2d14610051578063771a600c1461006d578063778a6e1b146100a5578063c857095f146100dc575b600080fd5b61006b60048036038101906100669190610c45565b6100f8565b005b61008760048036038101906100829190610d00565b6101a8565b60405161009c99989796959493929190610dc4565b60405180910390f35b6100bf60048036038101906100ba9190610d00565b610526565b6040516100d3989796959493929190610f39565b60405180910390f35b6100f660048036038101906100f19190610fe1565b61085a565b005b600080600086815260200190815260200160002090508151600282600901805490506101249190611152565b14610164576040517f08c379a000000000000000000000000000000000000000000000000000000000815260040161015b906111cf565b60405180910390fd5b8381600501908161017591906113fb565b508281600601908161018791906113fb565b508181600a0190805190602001906101a0929190610983565b505050505050565b60006020528060005260406000206000915090508060000154908060010180546101d19061121e565b80601f01602080910402602001604051908101604052809291908181526020018280546101fd9061121e565b801561024a5780601f1061021f5761010080835404028352916020019161024a565b820191906000526020600020905b81548152906001019060200180831161022d57829003601f168201915b50505050509080600201805461025f9061121e565b80601f016020809104026020016040519081016040528092919081815260200182805461028b9061121e565b80156102d85780601f106102ad576101008083540402835291602001916102d8565b820191906000526020600020905b8154815290600101906020018083116102bb57829003601f168201915b5050505050908060030180546102ed9061121e565b80601f01602080910402602001604051908101604052809291908181526020018280546103199061121e565b80156103665780601f1061033b57610100808354040283529160200191610366565b820191906000526020600020905b81548152906001019060200180831161034957829003601f168201915b50505050509080600401805461037b9061121e565b80601f01602080910402602001604051908101604052809291908181526020018280546103a79061121e565b80156103f45780601f106103c9576101008083540402835291602001916103f4565b820191906000526020600020905b8154815290600101906020018083116103d757829003601f168201915b5050505050908060050180546104099061121e565b80601f01602080910402602001604051908101604052809291908181526020018280546104359061121e565b80156104825780601f1061045757610100808354040283529160200191610482565b820191906000526020600020905b81548152906001019060200180831161046557829003601f168201915b5050505050908060060180546104979061121e565b80601f01602080910402602001604051908101604052809291908181526020018280546104c39061121e565b80156105105780601f106104e557610100808354040283529160200191610510565b820191906000526020600020905b8154815290600101906020018083116104f357829003601f168201915b5050505050908060070154908060080154905089565b60608060608060008060608060008060008b8152602001908152602001600020905080600101816002018260030183600401846007015485600801548660090187600a018780546105769061121e565b80601f01602080910402602001604051908101604052809291908181526020018280546105a29061121e565b80156105ef5780601f106105c4576101008083540402835291602001916105ef565b820191906000526020600020905b8154815290600101906020018083116105d257829003601f168201915b505050505097508680546106029061121e565b80601f016020809104026020016040519081016040528092919081815260200182805461062e9061121e565b801561067b5780601f106106505761010080835404028352916020019161067b565b820191906000526020600020905b81548152906001019060200180831161065e57829003601f168201915b5050505050965085805461068e9061121e565b80601f01602080910402602001604051908101604052809291908181526020018280546106ba9061121e565b80156107075780601f106106dc57610100808354040283529160200191610707565b820191906000526020600020905b8154815290600101906020018083116106ea57829003601f168201915b5050505050955084805461071a9061121e565b80601f01602080910402602001604051908101604052809291908181526020018280546107469061121e565b80156107935780601f1061076857610100808354040283529160200191610793565b820191906000526020600020905b81548152906001019060200180831161077657829003601f168201915b50505050509450818054806020026020016040519081016040528092919081815260200182805480156107e557602002820191906000526020600020905b8154815260200190600101908083116107d1575b505050505091508080548060200260200160405190810160405280929190818152602001828054801561083757602002820191906000526020600020905b815481526020019060010190808311610823575b505050505090509850985098509850985098509850985050919395975091939597565b6001600089815260200190815260200160002060009054906101000a900460ff16156108bb576040517f08c379a00000000000000000000000000000000000000000000000000000000081526004016108b290611519565b60405180910390fd5b60008060008a81526020019081526020016000209050888160000181905550878160010190816108eb91906113fb565b50868160040190816108fd91906113fb565b508581600301908161090f91906113fb565b508481600201908161092191906113fb565b508381600701819055508281600801819055508181600901908051906020019061094c929190610983565b5060018060008b815260200190815260200160002060006101000a81548160ff021916908315150217905550505050505050505050565b8280548282559060005260206000209081019282156109bf579160200282015b828111156109be5782518255916020019190600101906109a3565b5b5090506109cc91906109d0565b5090565b5b808211156109e95760008160009055506001016109d1565b5090565b6000604051905090565b600080fd5b600080fd5b6000819050919050565b610a1481610a01565b8114610a1f57600080fd5b50565b600081359050610a3181610a0b565b92915050565b600080fd5b600080fd5b6000601f19601f8301169050919050565b7f4e487b7100000000000000000000000000000000000000000000000000000000600052604160045260246000fd5b610a8a82610a41565b810181811067ffffffffffffffff82111715610aa957610aa8610a52565b5b80604052505050565b6000610abc6109ed565b9050610ac88282610a81565b919050565b600067ffffffffffffffff821115610ae857610ae7610a52565b5b610af182610a41565b9050602081019050919050565b82818337600083830152505050565b6000610b20610b1b84610acd565b610ab2565b905082815260208101848484011115610b3c57610b3b610a3c565b5b610b47848285610afe565b509392505050565b600082601f830112610b6457610b63610a37565b5b8135610b74848260208601610b0d565b91505092915050565b600067ffffffffffffffff821115610b9857610b97610a52565b5b602082029050602081019050919050565b600080fd5b6000610bc1610bbc84610b7d565b610ab2565b90508083825260208201905060208402830185811115610be457610be3610ba9565b5b835b81811015610c0d5780610bf98882610a22565b845260208401935050602081019050610be6565b5050509392505050565b600082601f830112610c2c57610c2b610a37565b5b8135610c3c848260208601610bae565b91505092915050565b60008060008060808587031215610c5f57610c5e6109f7565b5b6000610c6d87828801610a22565b945050602085013567ffffffffffffffff811115610c8e57610c8d6109fc565b5b610c9a87828801610b4f565b935050604085013567ffffffffffffffff811115610cbb57610cba6109fc565b5b610cc787828801610b4f565b925050606085013567ffffffffffffffff811115610ce857610ce76109fc565b5b610cf487828801610c17565b91505092959194509250565b600060208284031215610d1657610d156109f7565b5b6000610d2484828501610a22565b91505092915050565b610d3681610a01565b82525050565b600081519050919050565b600082825260208201905092915050565b60005b83811015610d76578082015181840152602081019050610d5b565b83811115610d85576000848401525b50505050565b6000610d9682610d3c565b610da08185610d47565b9350610db0818560208601610d58565b610db981610a41565b840191505092915050565b600061012082019050610dda600083018c610d2d565b8181036020830152610dec818b610d8b565b90508181036040830152610e00818a610d8b565b90508181036060830152610e148189610d8b565b90508181036080830152610e288188610d8b565b905081810360a0830152610e3c8187610d8b565b905081810360c0830152610e508186610d8b565b9050610e5f60e0830185610d2d565b610e6d610100830184610d2d565b9a9950505050505050505050565b600081519050919050565b600082825260208201905092915050565b6000819050602082019050919050565b610eb081610a01565b82525050565b6000610ec28383610ea7565b60208301905092915050565b6000602082019050919050565b6000610ee682610e7b565b610ef08185610e86565b9350610efb83610e97565b8060005b83811015610f2c578151610f138882610eb6565b9750610f1e83610ece565b925050600181019050610eff565b5085935050505092915050565b6000610100820190508181036000830152610f54818b610d8b565b90508181036020830152610f68818a610d8b565b90508181036040830152610f7c8189610d8b565b90508181036060830152610f908188610d8b565b9050610f9f6080830187610d2d565b610fac60a0830186610d2d565b81810360c0830152610fbe8185610edb565b905081810360e0830152610fd28184610edb565b90509998505050505050505050565b600080600080600080600080610100898b031215611002576110016109f7565b5b60006110108b828c01610a22565b985050602089013567ffffffffffffffff811115611031576110306109fc565b5b61103d8b828c01610b4f565b975050604089013567ffffffffffffffff81111561105e5761105d6109fc565b5b61106a8b828c01610b4f565b965050606089013567ffffffffffffffff81111561108b5761108a6109fc565b5b6110978b828c01610b4f565b955050608089013567ffffffffffffffff8111156110b8576110b76109fc565b5b6110c48b828c01610b4f565b94505060a06110d58b828c01610a22565b93505060c06110e68b828c01610a22565b92505060e089013567ffffffffffffffff811115611107576111066109fc565b5b6111138b828c01610c17565b9150509295985092959890939650565b7f4e487b7100000000000000000000000000000000000000000000000000000000600052601260045260246000fd5b600061115d82610a01565b915061116883610a01565b92508261117857611177611123565b5b828204905092915050565b7f506c65617365207265636976656420636172746f6f6e7320666f722065616368600082015250565b60006111b9602083610d47565b91506111c482611183565b602082019050919050565b600060208201905081810360008301526111e8816111ac565b9050919050565b7f4e487b7100000000000000000000000000000000000000000000000000000000600052602260045260246000fd5b6000600282049050600182168061123657607f821691505b602082108103611249576112486111ef565b5b50919050565b60008190508160005260206000209050919050565b60006020601f8301049050919050565b600082821b905092915050565b6000600883026112b17fffffffffffffffffffffffffffffffffffffffffffffffffffffffffffffffff82611274565b6112bb8683611274565b95508019841693508086168417925050509392505050565b6000819050919050565b60006112f86112f36112ee84610a01565b6112d3565b610a01565b9050919050565b6000819050919050565b611312836112dd565b61132661131e826112ff565b848454611281565b825550505050565b600090565b61133b61132e565b611346818484611309565b505050565b5b8181101561136a5761135f600082611333565b60018101905061134c565b5050565b601f8211156113af576113808161124f565b61138984611264565b81016020851015611398578190505b6113ac6113a485611264565b83018261134b565b50505b505050565b600082821c905092915050565b60006113d2600019846008026113b4565b1980831691505092915050565b60006113eb83836113c1565b9150826002028217905092915050565b61140482610d3c565b67ffffffffffffffff81111561141d5761141c610a52565b5b611427825461121e565b61143282828561136e565b600060209050601f8311600181146114655760008415611453578287015190505b61145d85826113df565b8655506114c5565b601f1984166114738661124f565b60005b8281101561149b57848901518255600182019150602085019450602081019050611476565b868310156114b857848901516114b4601f8916826113c1565b8355505b6001600288020188555050505b505050505050565b7f494420416c726561647920457869737400000000000000000000000000000000600082015250565b6000611503601083610d47565b915061150e826114cd565b602082019050919050565b60006020820190508181036000830152611532816114f6565b905091905056fea264697066735822122058c1c3c2de01249b6032c44ce022507be2965d9bd4429003915d65808d65cfc964736f6c634300080f0033",
  "linkReferences": {},
  "deployedLinkReferences": {}
}