{
  "_format": "hh-sol-artifact-1",
  "contractName": "SupplyChain",
  "sourceName": "contracts/SupplyChain.sol",
  "abi": [
    {
      "inputs": [
        {
          "internalType": "uint256",
          "name": "",
          "type": "uint256"
        }
      ],
      "name": "containerDetail",
      "outputs": [
        {
          "internalType": "uint256",
          "name": "container",
          "type": "uint256"
        },
        {
          "internalType": "string",
          "name": "dateOfDept",
          "type": "string"
        },
        {
          "internalType": "string",
          "name": "placeOfDept",
          "type": "string"
        },
        {
          "internalType": "string",
          "name": "expectArrivalDate",
          "type": "string"
        },
        {
          "internalType": "string",
          "name": "expArrivalLocation",
          "type": "string"
        },
        {
          "internalType": "string",
          "name": "dateUnloaded",
          "type": "string"
        },
        {
          "internalType": "string",
          "name": "locationUnloaded",
          "type": "string"
        },
        {
          "internalType": "uint256",
          "name": "vessel",
          "type": "uint256"
        },
        {
          "internalType": "uint256",
          "name": "voyage",
          "type": "uint256"
        }
      ],
      "stateMutability": "view",
      "type": "function"
    },
    {
      "inputs": [
        {
          "internalType": "uint256",
          "name": "_containerID",
          "type": "uint256"
        },
        {
          "internalType": "string",
          "name": "_dateUnloaded",
          "type": "string"
        },
        {
          "internalType": "string",
          "name": "_locationUnloaded",
          "type": "string"
        }
      ],
      "name": "containerUnload",
      "outputs": [],
      "stateMutability": "nonpayable",
      "type": "function"
    },
    {
      "inputs": [
        {
          "internalType": "uint256",
          "name": "_container",
          "type": "uint256"
        },
        {
          "internalType": "string",
          "name": "_dateOfDept",
          "type": "string"
        },
        {
          "internalType": "string",
          "name": "_placeOfDept",
          "type": "string"
        },
        {
          "internalType": "string",
          "name": "_expDateOfArrival",
          "type": "string"
        },
        {
          "internalType": "string",
          "name": "_expLocationOfArrival",
          "type": "string"
        },
        {
          "internalType": "uint256",
          "name": "_vessel",
          "type": "uint256"
        },
        {
          "internalType": "uint256",
          "name": "_voyage",
          "type": "uint256"
        },
        {
          "internalType": "uint256[]",
          "name": "UPC_ShippedCartons",
          "type": "uint256[]"
        }
      ],
      "name": "generateOrder",
      "outputs": [],
      "stateMutability": "nonpayable",
      "type": "function"
    },
    {
      "inputs": [
        {
          "internalType": "uint256",
          "name": "_containerID",
          "type": "uint256"
        }
      ],
      "name": "getOrderbyContainerID",
      "outputs": [
        {
          "internalType": "string",
          "name": "",
          "type": "string"
        },
        {
          "internalType": "string",
          "name": "",
          "type": "string"
        },
        {
          "internalType": "string",
          "name": "",
          "type": "string"
        },
        {
          "internalType": "string",
          "name": "",
          "type": "string"
        },
        {
          "internalType": "uint256",
          "name": "",
          "type": "uint256"
        },
        {
          "internalType": "uint256",
          "name": "",
          "type": "uint256"
        },
        {
          "internalType": "uint256[]",
          "name": "",
          "type": "uint256[]"
        }
      ],
      "stateMutability": "view",
      "type": "function"
    }
  ],
  "bytecode": "0x608060405234801561001057600080fd5b50611393806100206000396000f3fe608060405234801561001057600080fd5b506004361061004c5760003560e01c80634f8094a214610051578063771a600c1461006d578063778a6e1b146100a5578063c857095f146100db575b600080fd5b61006b60048036038101906100669190610ab3565b6100f7565b005b61008760048036038101906100829190610b3e565b610137565b60405161009c99989796959493929190610c02565b60405180910390f35b6100bf60048036038101906100ba9190610b3e565b6104b5565b6040516100d29796959493929190610d77565b60405180910390f35b6100f560048036038101906100f09190610ed1565b610790565b005b600080600085815260200190815260200160002090508281600501908161011e919061121f565b5081816006019081610130919061121f565b5050505050565b600060205280600052604060002060009150905080600001549080600101805461016090611042565b80601f016020809104026020016040519081016040528092919081815260200182805461018c90611042565b80156101d95780601f106101ae576101008083540402835291602001916101d9565b820191906000526020600020905b8154815290600101906020018083116101bc57829003601f168201915b5050505050908060020180546101ee90611042565b80601f016020809104026020016040519081016040528092919081815260200182805461021a90611042565b80156102675780601f1061023c57610100808354040283529160200191610267565b820191906000526020600020905b81548152906001019060200180831161024a57829003601f168201915b50505050509080600301805461027c90611042565b80601f01602080910402602001604051908101604052809291908181526020018280546102a890611042565b80156102f55780601f106102ca576101008083540402835291602001916102f5565b820191906000526020600020905b8154815290600101906020018083116102d857829003601f168201915b50505050509080600401805461030a90611042565b80601f016020809104026020016040519081016040528092919081815260200182805461033690611042565b80156103835780601f1061035857610100808354040283529160200191610383565b820191906000526020600020905b81548152906001019060200180831161036657829003601f168201915b50505050509080600501805461039890611042565b80601f01602080910402602001604051908101604052809291908181526020018280546103c490611042565b80156104115780601f106103e657610100808354040283529160200191610411565b820191906000526020600020905b8154815290600101906020018083116103f457829003601f168201915b50505050509080600601805461042690611042565b80601f016020809104026020016040519081016040528092919081815260200182805461045290611042565b801561049f5780601f106104745761010080835404028352916020019161049f565b820191906000526020600020905b81548152906001019060200180831161048257829003601f168201915b5050505050908060070154908060080154905089565b606080606080600080606060008060008a8152602001908152602001600020905080600101816002018260030183600401846007015485600801548660090186805461050090611042565b80601f016020809104026020016040519081016040528092919081815260200182805461052c90611042565b80156105795780601f1061054e57610100808354040283529160200191610579565b820191906000526020600020905b81548152906001019060200180831161055c57829003601f168201915b5050505050965085805461058c90611042565b80601f01602080910402602001604051908101604052809291908181526020018280546105b890611042565b80156106055780601f106105da57610100808354040283529160200191610605565b820191906000526020600020905b8154815290600101906020018083116105e857829003601f168201915b5050505050955084805461061890611042565b80601f016020809104026020016040519081016040528092919081815260200182805461064490611042565b80156106915780601f1061066657610100808354040283529160200191610691565b820191906000526020600020905b81548152906001019060200180831161067457829003601f168201915b505050505094508380546106a490611042565b80601f01602080910402602001604051908101604052809291908181526020018280546106d090611042565b801561071d5780601f106106f25761010080835404028352916020019161071d565b820191906000526020600020905b81548152906001019060200180831161070057829003601f168201915b505050505093508080548060200260200160405190810160405280929190818152602001828054801561076f57602002820191906000526020600020905b81548152602001906001019080831161075b575b50505050509050975097509750975097509750975050919395979092949650565b6001600089815260200190815260200160002060009054906101000a900460ff16156107f1576040517f08c379a00000000000000000000000000000000000000000000000000000000081526004016107e89061133d565b60405180910390fd5b60008060008a8152602001908152602001600020905088816000018190555087816001019081610821919061121f565b5086816004019081610833919061121f565b5085816003019081610845919061121f565b5084816002019081610857919061121f565b50838160070181905550828160080181905550818160090190805190602001906108829291906108b9565b5060018060008b815260200190815260200160002060006101000a81548160ff021916908315150217905550505050505050505050565b8280548282559060005260206000209081019282156108f5579160200282015b828111156108f45782518255916020019190600101906108d9565b5b5090506109029190610906565b5090565b5b8082111561091f576000816000905550600101610907565b5090565b6000604051905090565b600080fd5b600080fd5b6000819050919050565b61094a81610937565b811461095557600080fd5b50565b60008135905061096781610941565b92915050565b600080fd5b600080fd5b6000601f19601f8301169050919050565b7f4e487b7100000000000000000000000000000000000000000000000000000000600052604160045260246000fd5b6109c082610977565b810181811067ffffffffffffffff821117156109df576109de610988565b5b80604052505050565b60006109f2610923565b90506109fe82826109b7565b919050565b600067ffffffffffffffff821115610a1e57610a1d610988565b5b610a2782610977565b9050602081019050919050565b82818337600083830152505050565b6000610a56610a5184610a03565b6109e8565b905082815260208101848484011115610a7257610a71610972565b5b610a7d848285610a34565b509392505050565b600082601f830112610a9a57610a9961096d565b5b8135610aaa848260208601610a43565b91505092915050565b600080600060608486031215610acc57610acb61092d565b5b6000610ada86828701610958565b935050602084013567ffffffffffffffff811115610afb57610afa610932565b5b610b0786828701610a85565b925050604084013567ffffffffffffffff811115610b2857610b27610932565b5b610b3486828701610a85565b9150509250925092565b600060208284031215610b5457610b5361092d565b5b6000610b6284828501610958565b91505092915050565b610b7481610937565b82525050565b600081519050919050565b600082825260208201905092915050565b60005b83811015610bb4578082015181840152602081019050610b99565b83811115610bc3576000848401525b50505050565b6000610bd482610b7a565b610bde8185610b85565b9350610bee818560208601610b96565b610bf781610977565b840191505092915050565b600061012082019050610c18600083018c610b6b565b8181036020830152610c2a818b610bc9565b90508181036040830152610c3e818a610bc9565b90508181036060830152610c528189610bc9565b90508181036080830152610c668188610bc9565b905081810360a0830152610c7a8187610bc9565b905081810360c0830152610c8e8186610bc9565b9050610c9d60e0830185610b6b565b610cab610100830184610b6b565b9a9950505050505050505050565b600081519050919050565b600082825260208201905092915050565b6000819050602082019050919050565b610cee81610937565b82525050565b6000610d008383610ce5565b60208301905092915050565b6000602082019050919050565b6000610d2482610cb9565b610d2e8185610cc4565b9350610d3983610cd5565b8060005b83811015610d6a578151610d518882610cf4565b9750610d5c83610d0c565b925050600181019050610d3d565b5085935050505092915050565b600060e0820190508181036000830152610d91818a610bc9565b90508181036020830152610da58189610bc9565b90508181036040830152610db98188610bc9565b90508181036060830152610dcd8187610bc9565b9050610ddc6080830186610b6b565b610de960a0830185610b6b565b81810360c0830152610dfb8184610d19565b905098975050505050505050565b600067ffffffffffffffff821115610e2457610e23610988565b5b602082029050602081019050919050565b600080fd5b6000610e4d610e4884610e09565b6109e8565b90508083825260208201905060208402830185811115610e7057610e6f610e35565b5b835b81811015610e995780610e858882610958565b845260208401935050602081019050610e72565b5050509392505050565b600082601f830112610eb857610eb761096d565b5b8135610ec8848260208601610e3a565b91505092915050565b600080600080600080600080610100898b031215610ef257610ef161092d565b5b6000610f008b828c01610958565b985050602089013567ffffffffffffffff811115610f2157610f20610932565b5b610f2d8b828c01610a85565b975050604089013567ffffffffffffffff811115610f4e57610f4d610932565b5b610f5a8b828c01610a85565b965050606089013567ffffffffffffffff811115610f7b57610f7a610932565b5b610f878b828c01610a85565b955050608089013567ffffffffffffffff811115610fa857610fa7610932565b5b610fb48b828c01610a85565b94505060a0610fc58b828c01610958565b93505060c0610fd68b828c01610958565b92505060e089013567ffffffffffffffff811115610ff757610ff6610932565b5b6110038b828c01610ea3565b9150509295985092959890939650565b7f4e487b7100000000000000000000000000000000000000000000000000000000600052602260045260246000fd5b6000600282049050600182168061105a57607f821691505b60208210810361106d5761106c611013565b5b50919050565b60008190508160005260206000209050919050565b60006020601f8301049050919050565b600082821b905092915050565b6000600883026110d57fffffffffffffffffffffffffffffffffffffffffffffffffffffffffffffffff82611098565b6110df8683611098565b95508019841693508086168417925050509392505050565b6000819050919050565b600061111c61111761111284610937565b6110f7565b610937565b9050919050565b6000819050919050565b61113683611101565b61114a61114282611123565b8484546110a5565b825550505050565b600090565b61115f611152565b61116a81848461112d565b505050565b5b8181101561118e57611183600082611157565b600181019050611170565b5050565b601f8211156111d3576111a481611073565b6111ad84611088565b810160208510156111bc578190505b6111d06111c885611088565b83018261116f565b50505b505050565b600082821c905092915050565b60006111f6600019846008026111d8565b1980831691505092915050565b600061120f83836111e5565b9150826002028217905092915050565b61122882610b7a565b67ffffffffffffffff81111561124157611240610988565b5b61124b8254611042565b611256828285611192565b600060209050601f8311600181146112895760008415611277578287015190505b6112818582611203565b8655506112e9565b601f19841661129786611073565b60005b828110156112bf5784890151825560018201915060208501945060208101905061129a565b868310156112dc57848901516112d8601f8916826111e5565b8355505b6001600288020188555050505b505050505050565b7f494420416c726561647920457869737400000000000000000000000000000000600082015250565b6000611327601083610b85565b9150611332826112f1565b602082019050919050565b600060208201905081810360008301526113568161131a565b905091905056fea2646970667358221220e9e51ed5e0bd8fee7f1e81d3fbdc344dfc04c2beceb98d4eab96a5096af0c95b64736f6c634300080f0033",
  "linkReferences": {},
  "deployedLinkReferences": {}
}